:040000008A11112828
:10000800FE00030E83120313B9000408BA000A089D
:10001800BB007F08BC008A11E72A8A1113288301D4
:100028008A11B82A83120313D4004C30CE004E082C
:10003800D100013083120313D407FF305407840022
:100048008A1180218A11CE004E08D700570803195B
:100058000800253057060319362857088A11342313
:100068008A111D2883120313D2010130D407FF30EF
:10007800540784008A1180218A11D700003A031995
:10008800CA28643A03194C280D3A03194C281D282C
:100098005108840083130008D500840A0008D6009C
:1000A8000230CE004E08D107D61F63280330CE0099
:1000B8004E08D204D509D609D50A0319D60AD7019C
:1000C800D70A05305706031986285708CE004E0769
:1000D800013E84008A1180218A11CF008A11802173
:1000E8008A11D00050085602031D7C284F0855027B
:1000F800031C86280130CE004E08D7070530570666
:10010800031D69285208033903198E282D308A11D6
:1001180034238A11831203135708CE004E08D300E4
:10012800FF3083120313CE004E08D307530A031976
:100138001D280A30C6000030C7005308CE004E07FD
:10014800013E84008A1180218A11BE008A11802113
:100158008A11BF005608C1005508C0008A11D42171
:100168008A11831203133F08C9003E08C8008A1188
:1001780050228A11831203134608303ECF004F08DD
:10018800D70057088A1134238A119428080083124B
:100198000313B1002030AE002E08B20001308312E4
:1001A8000313B107FF30310784008A1180218A11B7
:1001B800AE002E08B70037080319080025303706A7
:1001C8000319EB2837088A113B238A11D228831296
:1001D8000313B3010130B107FF30310784008A11DE
:1001E80080218A11B700003A03197F29643A03195C
:1001F80001290D3A03190129D228320884008313F2
:100208000008B500840A0008B6000230AE002E08C7
:10021800B207B61F18290330AE002E08B304B5097B
:10022800B609B50A0319B60AB701B70A0530370681
:1002380003193B293708AE002E07013E84008A11B6
:1002480080218A11AF008A1180218A11B0003008FC
:100258003602031D31292F083502031C3B290130C2
:10026800AE002E08B70705303706031D1E293308D0
:100278000339031943292D308A113B238A1183122C
:1002880003133708AE002E08B400FF30831203139F
:10029800AE002E08B407340A0319D2280A30A80081
:1002A8000030A9003408AE002E07013E84008A11F0
:1002B80080218A11A0008A1180218A11A1003608A4
:1002C800A3003508A2008A1112228A11831203138F
:1002D8002108AB002008AA008A1184228A118312FF
:1002E80003132808303EAF002F08B70037088A11DB
:1002F8003B238A114929080001308A000408840A2E
:1003080082070034013400340A3400346434003481
:10031800E834033410342734203449346E347434C8
:100328006534723475347034633469346F346E34C0
:10033800203465346E3420345234583420345534E3
:10034800533441345234543420340A340D34003494
:1003580049346E34743465347234753470346334AB
:1003680069346F346E34203465346E34203452343A
:100378004234303420340A340D34003445346C347B
:1003880020346E3475346D34653472346F342034EF
:10039800653473342034253464340A340D3400341D
:1003A80083120313C301C4013E083F0403190D2A35
:1003B800C501C50ABF1BEC2901300310BE0DBF0DD6
:1003C800FF3E031DE1290130C2004208C507DE29AE
:1003D80001300310C30DC40DFF3E031DED293F0876
:1003E8004102031DF9293E084002031C022A3E0867
:1003F800C0023F08031CC103C102431401300310AB
:10040800BF0CBE0CFF3E031D032A0130C502031DAD
:10041800EC294408BF004308BE00080083120313F8
:10042800A501A6012008210403194B2AA701A70A40
:10043800A11B2A2A01300310A00DA10DFF3E031DA8
:100448001F2A0130A4002408A7071C2A0130031022
:10045800A50DA60DFF3E031D2B2A21082302031D0F
:10046800372A20082202031C402A2008A202210859
:10047800031CA303A302251401300310A10CA00C34
:10048800FF3E031D412A0130A702031D2A2A260820
:10049800A1002508A000080083120313460847049A
:1004A80003197F2ACB01CB0AC71B662A0130031028
:1004B800C60DC70DFF3E031D5B2A0130CA004A085E
:1004C800CB07582A47084902031D6C2A46084802E8
:1004D800031C742A4608C8024708031CC903C9023A
:1004E80001300310C70CC60CFF3E031D752A0130EE
:1004F800CB02031D662A4908C7004808C600080041
:1005080083120313280829040319B32AAD01AD0A7D
:10051800A91B9A2A01300310A80DA90DFF3E031D3F
:100528008F2A0130AC002C08AD078C2A29082B0231
:10053800031DA02A28082A02031CA82A2808AA02A0
:100548002908031CAB03AB0201300310A90CA80C4B
:10055800FF3E031DA92A0130AD02031D9A2A2B086C
:10056800A9002A08A80008008A110D238A118312FD
:100578000313DB018B170B170B16831603138C164B
:100588000117831203135B08D800D9015808CC005F
:100598005908CD003D308A1116208A110130831286
:1005A8000313D8005808DB071A3083120313DA0044
:1005B8005E30D9006E30D800D80BE02AD90BE02A7B
:1005C800DA0BE02AC52A8B1CEF2A27308A11CB20A8
:1005D8008A118B10002B8C1E002B1A08B8003808C3
:1005E800BD003D088A112A238A110B308A11CB20BD
:1005F8008A11831203138C12831203133C08FF0021
:100608003B088A003A088400390E8300FE0E7E0EED
:1006180009008316031387170713181218131815E0
:1006280081309900831203139817831603139816C1
:10063800831203131816080083120313BE003E0822
:1006480099008316031398180800252B83120313A7
:10065800A0002008990083160313981808002F2B70
:1006680083120313BF003F088A1120230800831256
:0C0678000313A10021088A112A230800A6
:02400E0032FF7F
:00000001FF
